{
  "_format": "hh-sol-artifact-1",
  "contractName": "PayStream",
  "sourceName": "contracts/payroll.sol",
  "abi": [
    {
      "inputs": [
        {
          "internalType": "address",
          "name": "_hlusd",
          "type": "address"
        },
        {
          "internalType": "address",
          "name": "_taxVault",
          "type": "address"
        },
        {
          "internalType": "uint256",
          "name": "_taxRate",
          "type": "uint256"
        }
      ],
      "stateMutability": "nonpayable",
      "type": "constructor"
    },
    {
      "inputs": [],
      "name": "ReentrancyGuardReentrantCall",
      "type": "error"
    },
    {
      "anonymous": false,
      "inputs": [
        {
          "indexed": true,
          "internalType": "address",
          "name": "employee",
          "type": "address"
        },
        {
          "indexed": false,
          "internalType": "uint256",
          "name": "amount",
          "type": "uint256"
        }
      ],
      "name": "BonusPaid",
      "type": "event"
    },
    {
      "anonymous": false,
      "inputs": [],
      "name": "EmergencyStopActivated",
      "type": "event"
    },
    {
      "anonymous": false,
      "inputs": [],
      "name": "EmergencyStopReleased",
      "type": "event"
    },
    {
      "anonymous": false,
      "inputs": [
        {
          "indexed": true,
          "internalType": "address",
          "name": "employee",
          "type": "address"
        }
      ],
      "name": "EmployeeOnboarded",
      "type": "event"
    },
    {
      "anonymous": false,
      "inputs": [
        {
          "indexed": true,
          "internalType": "uint256",
          "name": "id",
          "type": "uint256"
        },
        {
          "indexed": false,
          "internalType": "address",
          "name": "sender",
          "type": "address"
        },
        {
          "indexed": false,
          "internalType": "address",
          "name": "recipient",
          "type": "address"
        },
        {
          "indexed": false,
          "internalType": "uint256",
          "name": "amount",
          "type": "uint256"
        },
        {
          "indexed": false,
          "internalType": "uint256",
          "name": "startTime",
          "type": "uint256"
        },
        {
          "indexed": false,
          "internalType": "uint256",
          "name": "endTime",
          "type": "uint256"
        }
      ],
      "name": "StreamCreated",
      "type": "event"
    },
    {
      "anonymous": false,
      "inputs": [
        {
          "indexed": true,
          "internalType": "uint256",
          "name": "id",
          "type": "uint256"
        }
      ],
      "name": "StreamPaused",
      "type": "event"
    },
    {
      "anonymous": false,
      "inputs": [
        {
          "indexed": true,
          "internalType": "uint256",
          "name": "id",
          "type": "uint256"
        }
      ],
      "name": "StreamResumed",
      "type": "event"
    },
    {
      "anonymous": false,
      "inputs": [
        {
          "indexed": true,
          "internalType": "uint256",
          "name": "id",
          "type": "uint256"
        }
      ],
      "name": "StreamStopped",
      "type": "event"
    },
    {
      "inputs": [],
      "name": "activateEmergencyStop",
      "outputs": [],
      "stateMutability": "nonpayable",
      "type": "function"
    },
    {
      "inputs": [],
      "name": "admin",
      "outputs": [
        {
          "internalType": "address",
          "name": "",
          "type": "address"
        }
      ],
      "stateMutability": "view",
      "type": "function"
    },
    {
      "inputs": [
        {
          "internalType": "uint256",
          "name": "id",
          "type": "uint256"
        }
      ],
      "name": "calculateWithdrawable",
      "outputs": [
        {
          "internalType": "uint256",
          "name": "",
          "type": "uint256"
        }
      ],
      "stateMutability": "view",
      "type": "function"
    },
    {
      "inputs": [
        {
          "internalType": "address[]",
          "name": "recipients",
          "type": "address[]"
        },
        {
          "internalType": "uint256[]",
          "name": "amounts",
          "type": "uint256[]"
        },
        {
          "internalType": "uint256",
          "name": "startTime",
          "type": "uint256"
        },
        {
          "internalType": "uint256",
          "name": "endTime",
          "type": "uint256"
        }
      ],
      "name": "createBatchStreams",
      "outputs": [],
      "stateMutability": "nonpayable",
      "type": "function"
    },
    {
      "inputs": [
        {
          "internalType": "address",
          "name": "recipient",
          "type": "address"
        },
        {
          "internalType": "uint256",
          "name": "amount",
          "type": "uint256"
        },
        {
          "internalType": "uint256",
          "name": "startTime",
          "type": "uint256"
        },
        {
          "internalType": "uint256",
          "name": "endTime",
          "type": "uint256"
        }
      ],
      "name": "createStream",
      "outputs": [],
      "stateMutability": "nonpayable",
      "type": "function"
    },
    {
      "inputs": [],
      "name": "emergencyStopped",
      "outputs": [
        {
          "internalType": "bool",
          "name": "",
          "type": "bool"
        }
      ],
      "stateMutability": "view",
      "type": "function"
    },
    {
      "inputs": [
        {
          "internalType": "address",
          "name": "",
          "type": "address"
        }
      ],
      "name": "employees",
      "outputs": [
        {
          "internalType": "bool",
          "name": "",
          "type": "bool"
        }
      ],
      "stateMutability": "view",
      "type": "function"
    },
    {
      "inputs": [],
      "name": "hlusd",
      "outputs": [
        {
          "internalType": "contract IHLUSD",
          "name": "",
          "type": "address"
        }
      ],
      "stateMutability": "view",
      "type": "function"
    },
    {
      "inputs": [],
      "name": "onboardEmployee",
      "outputs": [],
      "stateMutability": "nonpayable",
      "type": "function"
    },
    {
      "inputs": [
        {
          "internalType": "uint256",
          "name": "id",
          "type": "uint256"
        }
      ],
      "name": "pauseStream",
      "outputs": [],
      "stateMutability": "nonpayable",
      "type": "function"
    },
    {
      "inputs": [
        {
          "internalType": "address",
          "name": "employee",
          "type": "address"
        },
        {
          "internalType": "uint256",
          "name": "amount",
          "type": "uint256"
        }
      ],
      "name": "payBonus",
      "outputs": [],
      "stateMutability": "nonpayable",
      "type": "function"
    },
    {
      "inputs": [],
      "name": "releaseEmergencyStop",
      "outputs": [],
      "stateMutability": "nonpayable",
      "type": "function"
    },
    {
      "inputs": [
        {
          "internalType": "uint256",
          "name": "id",
          "type": "uint256"
        }
      ],
      "name": "resumeStream",
      "outputs": [],
      "stateMutability": "nonpayable",
      "type": "function"
    },
    {
      "inputs": [
        {
          "internalType": "uint256",
          "name": "id",
          "type": "uint256"
        }
      ],
      "name": "stopStream",
      "outputs": [],
      "stateMutability": "nonpayable",
      "type": "function"
    },
    {
      "inputs": [],
      "name": "streamCount",
      "outputs": [
        {
          "internalType": "uint256",
          "name": "",
          "type": "uint256"
        }
      ],
      "stateMutability": "view",
      "type": "function"
    },
    {
      "inputs": [
        {
          "internalType": "uint256",
          "name": "",
          "type": "uint256"
        }
      ],
      "name": "streams",
      "outputs": [
        {
          "internalType": "address",
          "name": "sender",
          "type": "address"
        },
        {
          "internalType": "address",
          "name": "recipient",
          "type": "address"
        },
        {
          "internalType": "uint256",
          "name": "amount",
          "type": "uint256"
        },
        {
          "internalType": "uint256",
          "name": "startTime",
          "type": "uint256"
        },
        {
          "internalType": "uint256",
          "name": "endTime",
          "type": "uint256"
        },
        {
          "internalType": "bool",
          "name": "active",
          "type": "bool"
        },
        {
          "internalType": "bool",
          "name": "paused",
          "type": "bool"
        }
      ],
      "stateMutability": "view",
      "type": "function"
    },
    {
      "inputs": [],
      "name": "taxRate",
      "outputs": [
        {
          "internalType": "uint256",
          "name": "",
          "type": "uint256"
        }
      ],
      "stateMutability": "view",
      "type": "function"
    },
    {
      "inputs": [],
      "name": "taxVault",
      "outputs": [
        {
          "internalType": "address",
          "name": "",
          "type": "address"
        }
      ],
      "stateMutability": "view",
      "type": "function"
    },
    {
      "inputs": [
        {
          "internalType": "address",
          "name": "newAdmin",
          "type": "address"
        }
      ],
      "name": "transferAdmin",
      "outputs": [],
      "stateMutability": "nonpayable",
      "type": "function"
    },
    {
      "inputs": [
        {
          "internalType": "uint256",
          "name": "id",
          "type": "uint256"
        }
      ],
      "name": "withdraw",
      "outputs": [],
      "stateMutability": "nonpayable",
      "type": "function"
    },
    {
      "inputs": [
        {
          "internalType": "uint256",
          "name": "",
          "type": "uint256"
        }
      ],
      "name": "withdrawn",
      "outputs": [
        {
          "internalType": "uint256",
          "name": "",
          "type": "uint256"
        }
      ],
      "stateMutability": "view",
      "type": "function"
    }
  ],
  "bytecode": "0x6080604052348015600f57600080fd5b50604051611780380380611780833981016040819052602c91609c565b6001600081905580546001600160a01b039485166001600160a01b03199182161790915560028054939094169281169290921790925560049190915560038054909116331790556005805460ff1916905560d3565b80516001600160a01b0381168114609757600080fd5b919050565b60008060006060848603121560b057600080fd5b60b7846081565b925060c3602085016081565b9150604084015190509250925092565b61169e806100e26000396000f3fe608060405234801561001057600080fd5b50600436106101375760003560e01c80639755ecd0116100b8578063e1f0cadb1161007c578063e1f0cadb146102e6578063e2749c9614610311578063e2ad37b01461031e578063e6b43d0114610331578063f851a44014610351578063fb6a984e1461036457600080fd5b80639755ecd014610272578063985957ab14610285578063ac1e95751461028d578063cf8661f7146102a0578063d0678947146102b357600080fd5b806375829def116100ff57806375829def14610224578063771a3a1d146102375780637efd385e1461024e57806385d5089e1461025657806389d0e1191461026957600080fd5b80631b302fc41461013c5780632e1a7d4d1461015157806338d688691461016457806364d60d911461016c578063746ff13d14610211575b600080fd5b61014f61014a3660046113b4565b610377565b005b61014f61015f3660046113de565b61056d565b61014f610794565b6101c861017a3660046113de565b6006602052600090815260409020805460018201546002830154600384015460048501546005909501546001600160a01b039485169593909416939192909160ff8082169161010090041687565b604080516001600160a01b0398891681529790961660208801529486019390935260608501919091526080840152151560a0830152151560c082015260e0015b60405180910390f35b61014f61021f3660046113de565b61081c565b61014f6102323660046113f7565b610902565b61024060045481565b604051908152602001610208565b61014f610996565b61014f6102643660046113de565b610a2c565b61024060085481565b61014f610280366004611419565b610be9565b61014f610ff2565b61024061029b3660046113de565b61107a565b61014f6102ae36600461149e565b611195565b6102d66102c13660046113f7565b60096020526000908152604090205460ff1681565b6040519015158152602001610208565b6001546102f9906001600160a01b031681565b6040516001600160a01b039091168152602001610208565b6005546102d69060ff1681565b6002546102f9906001600160a01b031681565b61024061033f3660046113de565b60076020526000908152604090205481565b6003546102f9906001600160a01b031681565b61014f6103723660046113de565b61128b565b6003546001600160a01b031633146103aa5760405162461bcd60e51b81526004016103a190611521565b60405180910390fd5b60055460ff16156103cd5760405162461bcd60e51b81526004016103a190611544565b6001600160a01b03821660009081526009602052604090205460ff166104255760405162461bcd60e51b815260206004820152600d60248201526c139bdd081bdb989bd85c991959609a1b60448201526064016103a1565b600081116104655760405162461bcd60e51b815260206004820152600d60248201526c496e76616c696420626f6e757360981b60448201526064016103a1565b6001546040516323b872dd60e01b81523360048201526001600160a01b03848116602483015260448201849052909116906323b872dd906064016020604051808303816000875af11580156104be573d6000803e3d6000fd5b505050506040513d601f19601f820116820180604052508101906104e29190611571565b6105265760405162461bcd60e51b8152602060048201526015602482015274109bdb9d5cc81d1c985b9cd9995c8819985a5b1959605a1b60448201526064016103a1565b816001600160a01b03167f5201cdd751de1a2551f5d316ffc7159afee8b5775ba451a133a1d8c02b3f10678260405161056191815260200190565b60405180910390a25050565b61057561136e565b60055460ff16156105985760405162461bcd60e51b81526004016103a190611544565b600081815260066020526040902060018101546001600160a01b031633146105f25760405162461bcd60e51b815260206004820152600d60248201526c139bdd081c9958da5c1a595b9d609a1b60448201526064016103a1565b600581015460ff166106385760405162461bcd60e51b815260206004820152600f60248201526e53747265616d20696e61637469766560881b60448201526064016103a1565b60006106438361107a565b6000848152600760205260408120549192509061066090836115a9565b9050600081116106a85760405162461bcd60e51b81526020600482015260136024820152724e6f7468696e6720746f20776974686472617760681b60448201526064016103a1565b600084815260076020526040812080548392906106c69084906115c2565b9091555050600180549084015460405163a9059cbb60e01b81526001600160a01b0391821660048201526024810184905291169063a9059cbb906044016020604051808303816000875af1158015610722573d6000803e3d6000fd5b505050506040513d601f19601f820116820180604052508101906107469190611571565b6107845760405162461bcd60e51b815260206004820152600f60248201526e151c985b9cd9995c8819985a5b1959608a1b60448201526064016103a1565b5050506107916001600055565b50565b6002546001600160a01b031633146107e75760405162461bcd60e51b81526020600482015260166024820152754f6e6c79207661756c742063616e2072656c6561736560501b60448201526064016103a1565b6005805460ff191690556040517f7c9155c65f9a213cbae3db2e3f2542ec21bd7c02d1bb8a4feafd34f812fa4b2d90600090a1565b60055460ff161561083f5760405162461bcd60e51b81526004016103a190611544565b6000818152600660205260409020600581015460ff166108715760405162461bcd60e51b81526004016103a1906115d5565b80546001600160a01b031633146108c25760405162461bcd60e51b81526020600482015260156024820152744f6e6c792073656e6465722063616e20706175736560581b60448201526064016103a1565b60058101805461ff00191661010017905560405182907fc1e14ec692cfc1a89cae539cb884be8d7cc39fd7a129fd73e0d59895fe48d2b890600090a25050565b6003546001600160a01b0316331461092c5760405162461bcd60e51b81526004016103a190611521565b6001600160a01b0381166109745760405162461bcd60e51b815260206004820152600f60248201526e496e76616c6964206164647265737360881b60448201526064016103a1565b600380546001600160a01b0319166001600160a01b0392909216919091179055565b3360009081526009602052604090205460ff16156109ea5760405162461bcd60e51b8152602060048201526011602482015270105b1c9958591e481bdb989bd85c991959607a1b60448201526064016103a1565b33600081815260096020526040808220805460ff19166001179055517fe981ad6d8dd0ae68f11569831e651d4f745a09c96ef8921292f47e361ea2b2989190a2565b60055460ff1615610a4f5760405162461bcd60e51b81526004016103a190611544565b6000818152600660205260409020600581015460ff16610a815760405162461bcd60e51b81526004016103a1906115d5565b80546001600160a01b03163314610ad15760405162461bcd60e51b815260206004820152601460248201527304f6e6c792073656e6465722063616e2073746f760641b60448201526064016103a1565b6000610adc8361107a565b90506000818360020154610af091906115a9565b60058401805460ff1916905590508015610bb857600154835460405163a9059cbb60e01b81526001600160a01b0391821660048201526024810184905291169063a9059cbb906044016020604051808303816000875af1158015610b58573d6000803e3d6000fd5b505050506040513d601f19601f82011682018060405250810190610b7c9190611571565b610bb85760405162461bcd60e51b815260206004820152600d60248201526c1499599d5b990819985a5b1959609a1b60448201526064016103a1565b60405184907f242ffd3d336af56a436df6776bdf5e275ef944cffe0f8b0f4e42b94b34a35fb490600090a250505050565b6003546001600160a01b03163314610c135760405162461bcd60e51b81526004016103a190611521565b60055460ff1615610c365760405162461bcd60e51b81526004016103a190611544565b6001600160a01b03841660009081526009602052604090205460ff16610c9e5760405162461bcd60e51b815260206004820152601760248201527f526563697069656e74206e6f74206f6e626f617264656400000000000000000060448201526064016103a1565b60008311610ce35760405162461bcd60e51b81526020600482015260126024820152710416d6f756e74206d757374206265203e20360741b60448201526064016103a1565b818111610d255760405162461bcd60e51b815260206004820152601060248201526f496e76616c6964207363686564756c6560801b60448201526064016103a1565b6000606460045485610d379190611600565b610d419190611617565b90506000610d4f82866115a9565b6001546040516323b872dd60e01b8152336004820152306024820152604481018890529192506001600160a01b0316906323b872dd906064016020604051808303816000875af1158015610da7573d6000803e3d6000fd5b505050506040513d601f19601f82011682018060405250810190610dcb9190611571565b610e095760405162461bcd60e51b815260206004820152600f60248201526e151c985b9cd9995c8819985a5b1959608a1b60448201526064016103a1565b6040805160e0810182523381526001600160a01b038881166020808401918252838501868152606085018a8152608086018a8152600160a08801818152600060c08a01818152600854825260069097528a9020985189549089166001600160a01b0319918216178a5596518983018054918a16919098161790965592516002808901919091559151600388015551600480880191909155935160059096018054935115156101000261ff00199715159790971661ffff199094169390931795909517909155549254935163a9059cbb60e01b81529382169084015260248301859052169063a9059cbb906044016020604051808303816000875af1158015610f15573d6000803e3d6000fd5b505050506040513d601f19601f82011682018060405250810190610f399190611571565b610f7b5760405162461bcd60e51b815260206004820152601360248201527215185e081d1c985b9cd9995c8819985a5b1959606a1b60448201526064016103a1565b600854604080513381526001600160a01b038916602082015290810183905260608101869052608081018590527f8d3a4d9a98c71920c13665fb97f1a612978391e661f9a17fa5390f60e7424d5c9060a00160405180910390a260088054906000610fe583611639565b9190505550505050505050565b6002546001600160a01b031633146110425760405162461bcd60e51b815260206004820152601360248201527204f6e6c79207661756c742063616e2073746f7606c1b60448201526064016103a1565b6005805460ff191660011790556040517f4e360eaf5c2a0e4ebb03155da87ffa096252cc2ec66db5848b4ef13e99172bbd90600090a1565b6000818152600660209081526040808320815160e08101835281546001600160a01b0390811682526001830154169381019390935260028101549183019190915260038101546060830152600481015460808301526005015460ff80821615801560a085015261010090920416151560c0830152806110fa57508060c001515b156111085750600092915050565b8060600151421161111c5750600092915050565b600081608001514210611144578160600151826080015161113d91906115a9565b9050611156565b606082015161115390426115a9565b90505b60008260600151836080015161116c91906115a9565b90506000818385604001516111819190611600565b61118b9190611617565b9695505050505050565b6003546001600160a01b031633146111bf5760405162461bcd60e51b81526004016103a190611521565b60055460ff16156111e25760405162461bcd60e51b81526004016103a190611544565b8483146112255760405162461bcd60e51b81526020600482015260116024820152704d69736d6174636865642061727261797360781b60448201526064016103a1565b60005b858110156112825761127a87878381811061124557611245611652565b905060200201602081019061125a91906113f7565b86868481811061126c5761126c611652565b905060200201358585610be9565b600101611228565b50505050505050565b60055460ff16156112ae5760405162461bcd60e51b81526004016103a190611544565b6000818152600660205260409020600581015460ff166112e05760405162461bcd60e51b81526004016103a1906115d5565b80546001600160a01b031633146113325760405162461bcd60e51b81526020600482015260166024820152754f6e6c792073656e6465722063616e20726573756d6560501b60448201526064016103a1565b60058101805461ff001916905560405182907fa5667ab2e05e1400eb0f467aa916600d98f5a2a45a69f02eb41da7469c51ce7090600090a25050565b60026000540361139157604051633ee5aeb560e01b815260040160405180910390fd5b6002600055565b80356001600160a01b03811681146113af57600080fd5b919050565b600080604083850312156113c757600080fd5b6113d083611398565b946020939093013593505050565b6000602082840312156113f057600080fd5b5035919050565b60006020828403121561140957600080fd5b61141282611398565b9392505050565b6000806000806080858703121561142f57600080fd5b61143885611398565b966020860135965060408601359560600135945092505050565b60008083601f84011261146457600080fd5b50813567ffffffffffffffff81111561147c57600080fd5b6020830191508360208260051b850101111561149757600080fd5b9250929050565b600080600080600080608087890312156114b757600080fd5b863567ffffffffffffffff8111156114ce57600080fd5b6114da89828a01611452565b909750955050602087013567ffffffffffffffff8111156114fa57600080fd5b61150689828a01611452565b979a9699509760408101359660609091013595509350505050565b6020808252600990820152682737ba1030b236b4b760b91b604082015260600190565b60208082526013908201527210dbdb9d1c9858dd081a5cc81cdd1bdc1c1959606a1b604082015260600190565b60006020828403121561158357600080fd5b8151801515811461141257600080fd5b634e487b7160e01b600052601160045260246000fd5b818103818111156115bc576115bc611593565b92915050565b808201808211156115bc576115bc611593565b60208082526011908201527053747265616d206e6f742061637469766560781b604082015260600190565b80820281158282048414176115bc576115bc611593565b60008261163457634e487b7160e01b600052601260045260246000fd5b500490565b60006001820161164b5761164b611593565b5060010190565b634e487b7160e01b600052603260045260246000fdfea26469706673582212207751e0e7b009f1257a44be791f0e26c38531a8cced26c07fb6ce0dc9ba6348cc64736f6c634300081c0033",
  "linkReferences": {},
  "deployedLinkReferences": {}
}