{
  "_format": "hh-sol-artifact-1",
  "contractName": "PayStream",
  "sourceName": "contracts/payroll.sol",
  "abi": [
    {
      "inputs": [
        {
          "internalType": "address",
          "name": "_hlusd",
          "type": "address"
        },
        {
          "internalType": "address",
          "name": "_taxVault",
          "type": "address"
        },
        {
          "internalType": "uint256",
          "name": "_taxRate",
          "type": "uint256"
        }
      ],
      "stateMutability": "nonpayable",
      "type": "constructor"
    },
    {
      "anonymous": false,
      "inputs": [
        {
          "indexed": true,
          "internalType": "address",
          "name": "employee",
          "type": "address"
        },
        {
          "indexed": false,
          "internalType": "uint256",
          "name": "amount",
          "type": "uint256"
        }
      ],
      "name": "BonusPaid",
      "type": "event"
    },
    {
      "anonymous": false,
      "inputs": [],
      "name": "EmergencyStopActivated",
      "type": "event"
    },
    {
      "anonymous": false,
      "inputs": [],
      "name": "EmergencyStopReleased",
      "type": "event"
    },
    {
      "anonymous": false,
      "inputs": [
        {
          "indexed": true,
          "internalType": "address",
          "name": "employee",
          "type": "address"
        }
      ],
      "name": "EmployeeOnboarded",
      "type": "event"
    },
    {
      "anonymous": false,
      "inputs": [
        {
          "indexed": true,
          "internalType": "uint256",
          "name": "id",
          "type": "uint256"
        },
        {
          "indexed": false,
          "internalType": "address",
          "name": "sender",
          "type": "address"
        },
        {
          "indexed": false,
          "internalType": "address",
          "name": "recipient",
          "type": "address"
        },
        {
          "indexed": false,
          "internalType": "uint256",
          "name": "amount",
          "type": "uint256"
        },
        {
          "indexed": false,
          "internalType": "uint256",
          "name": "startTime",
          "type": "uint256"
        },
        {
          "indexed": false,
          "internalType": "uint256",
          "name": "endTime",
          "type": "uint256"
        }
      ],
      "name": "StreamCreated",
      "type": "event"
    },
    {
      "anonymous": false,
      "inputs": [
        {
          "indexed": true,
          "internalType": "uint256",
          "name": "id",
          "type": "uint256"
        }
      ],
      "name": "StreamPaused",
      "type": "event"
    },
    {
      "anonymous": false,
      "inputs": [
        {
          "indexed": true,
          "internalType": "uint256",
          "name": "id",
          "type": "uint256"
        }
      ],
      "name": "StreamResumed",
      "type": "event"
    },
    {
      "anonymous": false,
      "inputs": [
        {
          "indexed": true,
          "internalType": "uint256",
          "name": "id",
          "type": "uint256"
        }
      ],
      "name": "StreamStopped",
      "type": "event"
    },
    {
      "inputs": [],
      "name": "activateEmergencyStop",
      "outputs": [],
      "stateMutability": "nonpayable",
      "type": "function"
    },
    {
      "inputs": [
        {
          "internalType": "address[]",
          "name": "recipients",
          "type": "address[]"
        },
        {
          "internalType": "uint256[]",
          "name": "amounts",
          "type": "uint256[]"
        },
        {
          "internalType": "uint256",
          "name": "startTime",
          "type": "uint256"
        },
        {
          "internalType": "uint256",
          "name": "endTime",
          "type": "uint256"
        }
      ],
      "name": "createBatchStreams",
      "outputs": [],
      "stateMutability": "nonpayable",
      "type": "function"
    },
    {
      "inputs": [
        {
          "internalType": "address",
          "name": "recipient",
          "type": "address"
        },
        {
          "internalType": "uint256",
          "name": "amount",
          "type": "uint256"
        },
        {
          "internalType": "uint256",
          "name": "startTime",
          "type": "uint256"
        },
        {
          "internalType": "uint256",
          "name": "endTime",
          "type": "uint256"
        }
      ],
      "name": "createStream",
      "outputs": [],
      "stateMutability": "nonpayable",
      "type": "function"
    },
    {
      "inputs": [],
      "name": "emergencyStopped",
      "outputs": [
        {
          "internalType": "bool",
          "name": "",
          "type": "bool"
        }
      ],
      "stateMutability": "view",
      "type": "function"
    },
    {
      "inputs": [
        {
          "internalType": "address",
          "name": "",
          "type": "address"
        }
      ],
      "name": "employees",
      "outputs": [
        {
          "internalType": "bool",
          "name": "",
          "type": "bool"
        }
      ],
      "stateMutability": "view",
      "type": "function"
    },
    {
      "inputs": [],
      "name": "hlusd",
      "outputs": [
        {
          "internalType": "contract IHLUSD",
          "name": "",
          "type": "address"
        }
      ],
      "stateMutability": "view",
      "type": "function"
    },
    {
      "inputs": [],
      "name": "onboardEmployee",
      "outputs": [],
      "stateMutability": "nonpayable",
      "type": "function"
    },
    {
      "inputs": [
        {
          "internalType": "uint256",
          "name": "id",
          "type": "uint256"
        }
      ],
      "name": "pauseStream",
      "outputs": [],
      "stateMutability": "nonpayable",
      "type": "function"
    },
    {
      "inputs": [
        {
          "internalType": "address",
          "name": "employee",
          "type": "address"
        },
        {
          "internalType": "uint256",
          "name": "amount",
          "type": "uint256"
        }
      ],
      "name": "payBonus",
      "outputs": [],
      "stateMutability": "nonpayable",
      "type": "function"
    },
    {
      "inputs": [],
      "name": "releaseEmergencyStop",
      "outputs": [],
      "stateMutability": "nonpayable",
      "type": "function"
    },
    {
      "inputs": [
        {
          "internalType": "uint256",
          "name": "id",
          "type": "uint256"
        }
      ],
      "name": "resumeStream",
      "outputs": [],
      "stateMutability": "nonpayable",
      "type": "function"
    },
    {
      "inputs": [
        {
          "internalType": "uint256",
          "name": "id",
          "type": "uint256"
        }
      ],
      "name": "stopStream",
      "outputs": [],
      "stateMutability": "nonpayable",
      "type": "function"
    },
    {
      "inputs": [],
      "name": "streamCount",
      "outputs": [
        {
          "internalType": "uint256",
          "name": "",
          "type": "uint256"
        }
      ],
      "stateMutability": "view",
      "type": "function"
    },
    {
      "inputs": [
        {
          "internalType": "uint256",
          "name": "",
          "type": "uint256"
        }
      ],
      "name": "streams",
      "outputs": [
        {
          "internalType": "address",
          "name": "sender",
          "type": "address"
        },
        {
          "internalType": "address",
          "name": "recipient",
          "type": "address"
        },
        {
          "internalType": "uint256",
          "name": "amount",
          "type": "uint256"
        },
        {
          "internalType": "uint256",
          "name": "startTime",
          "type": "uint256"
        },
        {
          "internalType": "uint256",
          "name": "endTime",
          "type": "uint256"
        },
        {
          "internalType": "bool",
          "name": "active",
          "type": "bool"
        },
        {
          "internalType": "bool",
          "name": "paused",
          "type": "bool"
        }
      ],
      "stateMutability": "view",
      "type": "function"
    },
    {
      "inputs": [],
      "name": "taxRate",
      "outputs": [
        {
          "internalType": "uint256",
          "name": "",
          "type": "uint256"
        }
      ],
      "stateMutability": "view",
      "type": "function"
    },
    {
      "inputs": [],
      "name": "taxVault",
      "outputs": [
        {
          "internalType": "address",
          "name": "",
          "type": "address"
        }
      ],
      "stateMutability": "view",
      "type": "function"
    }
  ],
  "bytecode": "0x6080604052348015600f57600080fd5b5060405161114d38038061114d833981016040819052602c916088565b600080546001600160a01b039485166001600160a01b03199182161790915560018054939094169216919091179091556002556003805460ff1916905560bf565b80516001600160a01b0381168114608357600080fd5b919050565b600080600060608486031215609c57600080fd5b60a384606d565b925060af60208501606d565b9150604084015190509250925092565b61107f806100ce6000396000f3fe608060405234801561001057600080fd5b50600436106101005760003560e01c80639755ecd011610097578063e1f0cadb11610066578063e1f0cadb14610276578063e2749c96146102a1578063e2ad37b0146102ae578063fb6a984e146102c157600080fd5b80639755ecd014610215578063985957ab14610228578063cf8661f714610230578063d06789471461024357600080fd5b8063771a3a1d116100d3578063771a3a1d146101da5780637efd385e146101f157806385d5089e146101f957806389d0e1191461020c57600080fd5b80631b302fc41461010557806338d688691461011a57806364d60d9114610122578063746ff13d146101c7575b600080fd5b610118610113366004610dcb565b6102d4565b005b6101186104a0565b61017e610130366004610df5565b60046020819052600091825260409091208054600182015460028301546003840154948401546005909401546001600160a01b03938416959290931693909260ff8082169161010090041687565b604080516001600160a01b0398891681529790961660208801529486019390935260608501919091526080840152151560a0830152151560c082015260e0015b60405180910390f35b6101186101d5366004610df5565b610528565b6101e360025481565b6040519081526020016101be565b61011861060e565b610118610207366004610df5565b6106a4565b6101e360055481565b610118610223366004610e0e565b610784565b610118610b78565b61011861023e366004610e93565b610c00565b610266610251366004610f16565b60066020526000908152604090205460ff1681565b60405190151581526020016101be565b600054610289906001600160a01b031681565b6040516001600160a01b0390911681526020016101be565b6003546102669060ff1681565b600154610289906001600160a01b031681565b6101186102cf366004610df5565b610ccc565b60035460ff16156103005760405162461bcd60e51b81526004016102f790610f38565b60405180910390fd5b6001600160a01b03821660009081526006602052604090205460ff166103585760405162461bcd60e51b815260206004820152600d60248201526c139bdd081bdb989bd85c991959609a1b60448201526064016102f7565b600081116103985760405162461bcd60e51b815260206004820152600d60248201526c496e76616c696420626f6e757360981b60448201526064016102f7565b6000546040516323b872dd60e01b81523360048201526001600160a01b03848116602483015260448201849052909116906323b872dd906064016020604051808303816000875af11580156103f1573d6000803e3d6000fd5b505050506040513d601f19601f820116820180604052508101906104159190610f65565b6104595760405162461bcd60e51b8152602060048201526015602482015274109bdb9d5cc81d1c985b9cd9995c8819985a5b1959605a1b60448201526064016102f7565b816001600160a01b03167f5201cdd751de1a2551f5d316ffc7159afee8b5775ba451a133a1d8c02b3f10678260405161049491815260200190565b60405180910390a25050565b6001546001600160a01b031633146104f35760405162461bcd60e51b81526020600482015260166024820152754f6e6c79207661756c742063616e2072656c6561736560501b60448201526064016102f7565b6003805460ff191690556040517f7c9155c65f9a213cbae3db2e3f2542ec21bd7c02d1bb8a4feafd34f812fa4b2d90600090a1565b60035460ff161561054b5760405162461bcd60e51b81526004016102f790610f38565b6000818152600460205260409020600581015460ff1661057d5760405162461bcd60e51b81526004016102f790610f87565b80546001600160a01b031633146105ce5760405162461bcd60e51b81526020600482015260156024820152744f6e6c792073656e6465722063616e20706175736560581b60448201526064016102f7565b60058101805461ff00191661010017905560405182907fc1e14ec692cfc1a89cae539cb884be8d7cc39fd7a129fd73e0d59895fe48d2b890600090a25050565b3360009081526006602052604090205460ff16156106625760405162461bcd60e51b8152602060048201526011602482015270105b1c9958591e481bdb989bd85c991959607a1b60448201526064016102f7565b33600081815260066020526040808220805460ff19166001179055517fe981ad6d8dd0ae68f11569831e651d4f745a09c96ef8921292f47e361ea2b2989190a2565b60035460ff16156106c75760405162461bcd60e51b81526004016102f790610f38565b6000818152600460205260409020600581015460ff166106f95760405162461bcd60e51b81526004016102f790610f87565b80546001600160a01b031633146107495760405162461bcd60e51b815260206004820152601460248201527304f6e6c792073656e6465722063616e2073746f760641b60448201526064016102f7565b60058101805460ff1916905560405182907f242ffd3d336af56a436df6776bdf5e275ef944cffe0f8b0f4e42b94b34a35fb490600090a25050565b60035460ff16156107a75760405162461bcd60e51b81526004016102f790610f38565b6001600160a01b03841660009081526006602052604090205460ff1661080f5760405162461bcd60e51b815260206004820152601760248201527f526563697069656e74206e6f74206f6e626f617264656400000000000000000060448201526064016102f7565b600083116108545760405162461bcd60e51b81526020600482015260126024820152710416d6f756e74206d757374206265203e20360741b60448201526064016102f7565b8181116108965760405162461bcd60e51b815260206004820152601060248201526f496e76616c6964207363686564756c6560801b60448201526064016102f7565b60006064600254856108a89190610fc8565b6108b29190610fe5565b905060006108c08286611007565b6000546040516323b872dd60e01b8152336004820152306024820152604481018890529192506001600160a01b0316906323b872dd906064016020604051808303816000875af1158015610918573d6000803e3d6000fd5b505050506040513d601f19601f8201168201806040525081019061093c9190610f65565b61097a5760405162461bcd60e51b815260206004820152600f60248201526e151c985b9cd9995c8819985a5b1959608a1b60448201526064016102f7565b6040805160e0810182523381526001600160a01b038881166020808401918252838501868152606085018a8152608086018a8152600160a08801818152600060c08a018181526005805483526004988990529b82209a518b54908b166001600160a01b0319918216178c559851938b01805494909a1693909816929092179097559251600288015590516003870155519185019190915591519284018054915115156101000261ff00199415159490941661ffff19909216919091179290921790915581549190610a4a8361101a565b909155505060005460015460405163a9059cbb60e01b81526001600160a01b0391821660048201526024810185905291169063a9059cbb906044016020604051808303816000875af1158015610aa4573d6000803e3d6000fd5b505050506040513d601f19601f82011682018060405250810190610ac89190610f65565b610b0a5760405162461bcd60e51b815260206004820152601360248201527215185e081d1c985b9cd9995c8819985a5b1959606a1b60448201526064016102f7565b6001600554610b199190611007565b604080513381526001600160a01b038916602082015290810183905260608101869052608081018590527f8d3a4d9a98c71920c13665fb97f1a612978391e661f9a17fa5390f60e7424d5c9060a00160405180910390a2505050505050565b6001546001600160a01b03163314610bc85760405162461bcd60e51b815260206004820152601360248201527204f6e6c79207661756c742063616e2073746f7606c1b60448201526064016102f7565b6003805460ff191660011790556040517f4e360eaf5c2a0e4ebb03155da87ffa096252cc2ec66db5848b4ef13e99172bbd90600090a1565b60035460ff1615610c235760405162461bcd60e51b81526004016102f790610f38565b848314610c665760405162461bcd60e51b81526020600482015260116024820152704d69736d6174636865642061727261797360781b60448201526064016102f7565b60005b85811015610cc357610cbb878783818110610c8657610c86611033565b9050602002016020810190610c9b9190610f16565b868684818110610cad57610cad611033565b905060200201358585610784565b600101610c69565b50505050505050565b60035460ff1615610cef5760405162461bcd60e51b81526004016102f790610f38565b6000818152600460205260409020600581015460ff16610d215760405162461bcd60e51b81526004016102f790610f87565b80546001600160a01b03163314610d735760405162461bcd60e51b81526020600482015260166024820152754f6e6c792073656e6465722063616e20726573756d6560501b60448201526064016102f7565b60058101805461ff001916905560405182907fa5667ab2e05e1400eb0f467aa916600d98f5a2a45a69f02eb41da7469c51ce7090600090a25050565b80356001600160a01b0381168114610dc657600080fd5b919050565b60008060408385031215610dde57600080fd5b610de783610daf565b946020939093013593505050565b600060208284031215610e0757600080fd5b5035919050565b60008060008060808587031215610e2457600080fd5b610e2d85610daf565b966020860135965060408601359560600135945092505050565b60008083601f840112610e5957600080fd5b50813567ffffffffffffffff811115610e7157600080fd5b6020830191508360208260051b8501011115610e8c57600080fd5b9250929050565b60008060008060008060808789031215610eac57600080fd5b863567ffffffffffffffff811115610ec357600080fd5b610ecf89828a01610e47565b909750955050602087013567ffffffffffffffff811115610eef57600080fd5b610efb89828a01610e47565b979a9699509760408101359660609091013595509350505050565b600060208284031215610f2857600080fd5b610f3182610daf565b9392505050565b60208082526013908201527210dbdb9d1c9858dd081a5cc81cdd1bdc1c1959606a1b604082015260600190565b600060208284031215610f7757600080fd5b81518015158114610f3157600080fd5b60208082526011908201527053747265616d206e6f742061637469766560781b604082015260600190565b634e487b7160e01b600052601160045260246000fd5b8082028115828204841417610fdf57610fdf610fb2565b92915050565b60008261100257634e487b7160e01b600052601260045260246000fd5b500490565b81810381811115610fdf57610fdf610fb2565b60006001820161102c5761102c610fb2565b5060010190565b634e487b7160e01b600052603260045260246000fdfea26469706673582212207318e0a2557b806cfd68eafe43bd065caf3b3a575fe1340ff31a59881d57eac464736f6c634300081c0033",
  "linkReferences": {},
  "deployedLinkReferences": {}
}